:020000040000fa
:080000000002040000000000f2
:020000040000fa
:10040000ef8121000e7f22000e0188000000000015
:100410000c00070080bb2000010020000f00070037
:10042000000020000000e000020032000000020096
:100430000000000062090200000000000040da0035
:100440000000fe00200420000000e0000200320056
:10045000002020009001880000000600a102880012
:10046000800078000000eb001a003700e2804000b6
:1004700054a0b4009101ba00e280400054a0b4003e
:100480009102ba00e280400054a0b4000002eb00e8
:10049000472bde00f507b200a6018800602ce100c2
:1004a00008003a000049eb000201e80002003900b0
:1004b0003420ec0002f0a0008301e900f9ff3e00c7
:1004c000040037006128e100010032000082eb00e7
:1004d000040007001101ba000200e000e3ff3a0047
:1004e0000000060004d0a300e20f49001c00390000
:1004f000810278003549ba000201e80002003900a3
:100500003420ec0002f0a0008301e9000f0032006b
:100510002549ba000201e800020039003420ec004d
:1005200002f0a0008301e900080032000400e000ae
:100530000600320015c9ba000201e80002003900c5
:100540003420ec0002f0a0008301e9008180e80083
:1005500054a0b4000300e000e2ff3a0000000600ef
:100560009102ba00055978008301e900f7ff3200d3
:10057000c82ade00055978008301e900f3ff320044
:100580000400e000f1ff320011d9ba00eeff37009d
:080590000040da000000fe004b
:020000040000fa
:020000040002f8
:04aff400ffff00005b
:020000040000fa
:020000040002f8
:04aff8002ef800002f
:020000040000fa
:020000040002f8
:04affc00d93f000039
:020000040000fa
:10000800c8020000c8020000c8020000c8020000c0
:10001800c8020000c8020000c8020000c8020000b0
:10002800c8020000c8020000c8020000c8020000a0
:10003800c8020000c8020000c8020000c802000090
:10004800c8020000c8020000c80200003a0a000006
:10005800c8020000c8020000c8020000c802000070
:10006800c8020000c8020000c8020000c802000060
:10007800c8020000c8020000c8020000c802000050
:10008800c8020000c8020000c8020000c802000040
:10009800c8020000c8020000260a0000c8020000ca
:1000a800c8020000c8020000c8020000c802000020
:1000b800c8020000c8020000c8020000c802000010
:1000c800c8020000c8020000c8020000c802000000
:1000d800c8020000c8020000c8020000c8020000f0
:1000e800c8020000c8020000c8020000c8020000e0
:1000f800c8020000c8020000c8020000c8020000d0
:10010800c8020000c8020000c8020000c8020000bf
:10011800c8020000c8020000c8020000c8020000af
:10012800c8020000c8020000c8020000c80200009f
:10013800c8020000c8020000c8020000c80200008f
:10014800c8020000c8020000c8020000c80200007f
:10015800c8020000c8020000c8020000c80200006f
:10016800c8020000c8020000c8020000c80200005f
:10017800c8020000c8020000c8020000c80200004f
:10018800c8020000c8020000c8020000c80200003f
:10019800c8020000c8020000c8020000c80200002f
:1001a800c8020000c8020000c8020000c80200001f
:1001b800c8020000c8020000c8020000c80200000f
:1001c800c8020000c8020000c8020000c8020000ff
:1001d800c8020000c8020000c8020000c8020000ef
:1001e800c8020000c8020000c8020000c8020000df
:0801f800c8020000c80200006b
:020000040000fa
:10020800c8020000c8020000c8020000c8020000be
:10021800c8020000c8020000c8020000c8020000ae
:10022800c8020000c8020000c8020000c80200009e
:10023800c8020000c8020000c8020000c80200008e
:10024800c8020000c8020000c80200003a0a000004
:10025800c8020000c8020000c8020000c80200006e
:10026800c8020000c8020000c8020000c80200005e
:10027800c8020000c8020000c8020000c80200004e
:10028800c8020000c8020000c8020000c80200003e
:10029800c8020000c8020000260a0000c8020000c8
:1002a800c8020000c8020000c8020000c80200001e
:1002b800c8020000c8020000c8020000c80200000e
:1002c800c8020000c8020000c8020000c8020000fe
:1002d800c8020000c8020000c8020000c8020000ee
:1002e800c8020000c8020000c8020000c8020000de
:1002f800c8020000c8020000c8020000c8020000ce
:10030800c8020000c8020000c8020000c8020000bd
:10031800c8020000c8020000c8020000c8020000ad
:10032800c8020000c8020000c8020000c80200009d
:10033800c8020000c8020000c8020000c80200008d
:10034800c8020000c8020000c8020000c80200007d
:10035800c8020000c8020000c8020000c80200006d
:10036800c8020000c8020000c8020000c80200005d
:10037800c8020000c8020000c8020000c80200004d
:10038800c8020000c8020000c8020000c80200003d
:10039800c8020000c8020000c8020000c80200002d
:1003a800c8020000c8020000c8020000c80200001d
:1003b800c8020000c8020000c8020000c80200000d
:1003c800c8020000c8020000c8020000c8020000fd
:1003d800c8020000c8020000c8020000c8020000ed
:1003e800c8020000c8020000c8020000c8020000dd
:0803f800c8020000c802000069
:020000040000fa
:100598007374000061720000740a000000650000b6
:1005a8006e6400000a000000656e00006420000010
:1005b8007265000061640000000000003031000036
:1005c8003233000034350000363700003839000077
:1005d800414200004344000045460000656e0000ab
:1005e800642000007361000076650000206400004c
:1005f80061740000610a00000000000073740000cc
:1006080061720000740a0000006500006e6400005a
:0406180000000000de
:020000040000fa
:10061c000200fa00004f78001e4078007f020700ad
:10062c000080fa00000006000600fa00100798008f
:10063c00210798000000eb00000f78000000eb0091
:10064c00000f7800060037009e0078001e00900016
:10065c000080400010407800edff07001e0fe800fe
:10066c002e0090009e0f1000f7ff39000080fa005a
:10067c00000006000800fa00881f78001007980098
:10068c00210798000000eb00000f78000000eb0041
:10069c00000f7800070037009e0078001e009000c5
:1006ac00008440008c020700004c78000060fe00c3
:1006bc001e0fe8002e0090009e0f1000f6ff390070
:1006cc001e0090009040780060c7b30080cf5000af
:1006dc0003003a0010002000300798000200370099
:1006ec000000eb00300798003e0090004f047800ab
:1006fc000080fa00000006003600fa000000eb0053
:10070c00000f7800203028009402070051002000d0
:10071c00407a2100c4ff07000e80e800a1002000f1
:10072c00d4ff07000000eb00000f78000e0037002c
:10073c009e0078000e80e800008040001041780098
:10074c009e007800907a21000080400010407800d4
:10075c00804f5100030032000000eb00201f980076
:10076c00080037001e0fe800300020009e0f10001c
:10077c00efff3600903028007802070010002000b0
:10078c00201f98002e1890000080fa000000060030
:10079c000a00fa000040eb00004f780051002000e6
:1007ac00707b2100a0ff07000e00e80091002000e4
:1007bc00b0ff07000004e00003003a000000eb006b
:1007cc0040079800210037000040eb00004f7800f4
:1007dc000d0037009e80fb000e00e80061417800a0
:1007ec009e80fb00c07b2100008040001040780000
:1007fc00804f5100030032000000eb0040079800ce
:10080c00120037001e4fe80060c0b3009e4f10006e
:10081c00f0ff36000e00e800804890000e00e80063
:10082c00704090000c0007000040eb00004f780077
:10083c00010037001e4fe80080c0b3009e4f10002f
:10084c00fcff360010002000400798004e0090007e
:10085c000080fa00000006000400fa00204798000f
:10086c00314798002e4090000080fb00c800dd004e
:10087c003e4090000080fb0000804000000f78009c
:10088c002e409000cff7b7003e409000d0f7b70055
:10089c001e007800e0c088000080fa00000006000e
:1008ac000800fa000040eb00004f7800a100200087
:1008bc00d07a21005cff07000e00e80051002000f8
:1008cc006cff07000004e00003003a000000eb009e
:1008dc0030079800150037000040eb00004f7800ff
:1008ec000d0037009e80fb000e00e800614178008f
:1008fc009e80fb00207b210000804000104078008f
:10090c00804f5100030032000000eb0030079800cc
:10091c00060037001e4fe80040c0b3009e4f100089
:10092c00f0ff360010002000300798003e009000c9
:10093c000080fa00000006000800fa00200798006a
:10094c000000eb0010079800e0c080006a0f400028
:10095c001e0078003002070001012000307c2100cd
:10096c0031ff07009e0078002e00900041ff070029
:10097c000000eb0010079800100037009e0090005c
:10098c002e00900000804000104178009e009000e6
:10099c00307d21000080400010407800804f5100d5
:1009ac00030032000000eb00300798003a003700db
:1009bc001e0090000000e800100798001e00900038
:1009cc00e40f5000edff36002e0090006500400053
:1009dc0010407800e14f400017003a002e009000c4
:1009ec00660040009040780080cdb30080cf50006e
:1009fc0011003a00e0c08000800078002e009000ca
:100a0c00008040006300400010407800e14f40003f
:100a1c0009003a00e0c08000800078002e009000b1
:100a2c0000804000640040009040780090cdb300fe
:100a3c0080cf5000030032000000eb00300798001c
:100a4c00150037000000eb00100798000c00370071
:100a5c009e0090002e009000008140009e009000af
:100a6c002e0090000080400065004000104078008f
:100a7c00004978001e0090000000e8001007980064
:100a8c00e1c080001e009000810f5000f0ff390083
:100a9c00e0c08000300798003e0090000080fa0013
:100aac00000006000600fa00100798007cff070003
:100abc000004e0000b00320035ff07000004e000ea
:100acc00080032001e0090009bff0700000f78000a
:100adc000000eb00000f78001e0078002007980043
:100aec00020037000000eb00200798002e00900059
:100afc000080fa00000006000200fa00000f7800e7
:100b0c0067ff070022ff07000080fa0000000600c4
:100b1c000600fa0010079800210798000000eb006f
:100b2c00000f78000000eb00000f78000700370082
:100b3c001e007800800078001e00900000804000ad
:100b4c0010407800350107001e0fe8009e00780069
:100b5c002e009000808f5000f5ff39000080fa00c5
:100b6c00000006000800fa00881f780010079800a3
:100b7c00210798000000eb00000f78000000eb004c
:100b8c00000f7800060037009e0078001e009000d1
:100b9c000084400050010700004c78001e0fe80054
:100bac002e0090009e0f1000f7ff39001e009000e1
:100bbc009040780060c7b30080cf500003003a002b
:100bcc001000200030079800020037000000eb00f6
:100bdc00300798003e0090004f0478000080fa0027
:100bec00000006000800fa0051002000d07d210012
:100bfc008dfe07000e00e800510020009dfe07004e
:100c0c000004e00003003a000000eb0030079800fd
:100c1c00150037000040eb00004f78000d00370046
:100c2c009e80fb000e00e800614178009e80fb0076
:100c3c00207e21000080400010407800804f510041
:100c4c00030032000000eb0030079800060037006c
:100c5c001e4fe80040c0b3009e4f1000f0ff36005e
:100c6c0010002000300798003e0090000080fa0031
:100c7c00000006000800fa00a1002000707e210090
:100c8c0069fe07000e00e8005100200079fe070005
:100c9c000004e00003003a000000eb00300798006d
:100cac00150037000040eb00004f78000d003700b6
:100cbc009e80fb000e00e800614178009e80fb00e6
:100ccc00107f21000080400010407800804f5100c0
:100cdc00030032000000eb003007980006003700dc
:100cec001e4fe80040c0b3009e4f1000f0ff3600ce
:100cfc0010002000300798003e0090000080fa00a1
:100d0c00000006000800fa000e00e8005100200068
:100d1c0094ff07000000e00003003a000000eb0025
:100d2c0030079800150037000040eb00004f7800aa
:100d3c000d0037009e80fb000e00e800614178003a
:100d4c009e80fb00807d21000080400010407800d8
:100d5c00804f5100030032000000eb003007980078
:100d6c00060037001e4fe80040c0b3009e4f100035
:100d7c00f0ff360010002000300798003e00900075
:100d8c000080fa00000006000800fa007100200044
:100d9c00607f210024fe07000e00e80051002000b7
:100dac0070ff07000000e00003003a000000eb00b9
:100dbc0030079800150037000040eb00004f78001a
:100dcc000d0037009e80fb000e00e80061417800aa
:100ddc009e80fb00d07f21000080400010407800f6
:100dec00804f5100030032000000eb0030079800e8
:100dfc00060037001e4fe80040c0b3009e4f1000a5
:100e0c00f0ff360010002000300798003e009000e4
:100e1c000080fa00000006000200fa0095ff0700af
:100e2c000004e000090032006eff07000004e0003f
:100e3c00060032000a0007000004e0000300320044
:100e4c0010002000000f7800020037000000eb00bb
:100e5c00000f78001e0078000080fa0000000600e9
:100e6c000800fa009100200020802100eefd070010
:100e7c000e00e80051002000fefd07000004e00019
:100e8c0003003a000000eb00300798001500370013
:100e9c000040eb00004f78000d0037009e80fb00f7
:100eac000e00e800614178009e80fb00b0802100bc
:100ebc000080400010407800804f51000300320049
:100ecc000000eb0030079800060037001e4fe800ca
:100edc0040c0b3009e4f1000f0ff36001000200001
:100eec00300798003e0090000080fa0000000600d9
:100efc000800fa007100200000812100cafd0700e3
:100f0c000e00e8005100200016ff07000000e00072
:100f1c0003003a000000eb00300798001500370082
:100f2c000040eb00004f78000d0037009e80fb0066
:100f3c000e00e800614178009e80fb00508121008a
:100f4c000080400010407800804f510003003200b8
:100f5c000000eb0030079800060037001e4fe80039
:100f6c0040c0b3009e4f1000f0ff36001000200070
:100f7c00300798003e0090000080fa000000060048
:100f8c000000fa0030032000c01188008000280007
:100f9c0080118800004022009011880097c0a800a2
:100fac0087c0a9000080fa00000006000000fa00cb
:100fbc000000eb00a01188000080fa000000060081
:100fcc000600fa0010079800020037001e40780057
:100fdc00120007001e00900010407800004f7800af
:100fec001e407800404798004e4090000004e000fe
:100ffc000200320010c0b300404798004e409000f1
:10100c009e0090008100e800110798000004e000a9
:10101c00eeff3a000080fa00000006000200fa0021
:10102c00004f780033c2bf00614060000004e00054
:10103c00fcff32001e80fb00a01188000080fa002b
:10104c00000006000400fa00204798002e40900093
:10105c00004f78002e4090000080fb004400de0022
:10106c006f406000204798002e4090008080fb006d
:10107c00202e280061407800e8ff07009e40780091
:10108c006fc06000204798002e4090008080fb00cd
:10109c00202e280061407800e0ff07000080fa0055
:1010ac00000006000400fa00100798001e009000d3
:1010bc004800de00104798001e009000004f78009a
:1010cc001e409000dfff07001e407800ddff070088
:1010dc000080fa00000006000200fa0032c2bf00d5
:1010ec00614060000004e000fcff3200b0118000a1
:1010fc00004f78001e4078000080fb000080fa0052
:10110c00000006000000fa003003200040118800a7
:10111c009560a8008560a900800028000011880057
:10112c002062a80000402000101188000080fa0006
:10113c00000006000200fa00004f780023c2bf0036
:10114c00614060000004e000fcff32001e80fb00e8
:10115c00201188000080fa00000006000600fa004a
:10116c0010079800020037001e407800f1ff0700be
:10117c001e00900010407800004f78001e40780050
:10118c00404798004e4090000004e00002003200fe
:10119c0010c0b300404798004e4090009e00900055
:1011ac008100e800110798000004e000eeff3a000f
:1011bc000080fa00000006000400fa0020479800a6
:1011cc002e409000004f78002e4090000080fb00d5
:1011dc004400de006f406000204798002e409000d5
:1011ec008080fb00202e280061407800d1ff070092
:1011fc009e4078006fc06000204798002e40900001
:10120c008080fb00202e280061407800c9ff070079
:10121c000080fa00000006000400fa001007980095
:10122c001e0090004800de00104798001e00900041
:10123c00004f78001e409000dfff07001e40780032
:10124c00ddff07000080fa00000006000800fa002d
:10125c0020079800310798002e009000be009000e7
:10126c004008de0001002000100798002e009000be
:10127c00000f78001e009000e7ff07001e007800aa
:10128c00e5ff07000080fa00000006000200fa00eb
:10129c0022c2bf00614060000004e000fcff32008d
:1012ac0030118000004f78001e4078000080fb0059
:1012bc000080fa00000006000000fa001000220076
:1012cc00103a880000402200410f200091010700d5
:1012dc000000eb00203a88002174200062042000fa
:1012ec0073052000824878008348780042c7a90023
:1012fc00d16a20009140780000ccb30000c060009f
:10130c003040b300ade6b700316c2000914078005e
:10131c0000ccb30000c06000b040b300c3e6b7001f
:10132c00216c20009140780000ccb30000c060001c
:10133c00a040b300c2e6b700c16a2000914078001b
:10134c0000ccb30000c060000024a000ace6b700e5
:10135c00416a20009140780000ccb30000c06000ce
:10136c006041b300a4e6b700916d20009140780075
:10137c0000ccb30000c060003040b300d9e6b70029
:10138c00616a20009140780000ccb30000c060007e
:10139c008041b300a6e6b700716d20009140780043
:1013ac0000ccb30000c060005040b300d7e6b700db
:1013bc00217420006204200073052000824878000c
:1013cc008348780042c7a8000060fe0040a7a80030
:1013dc00e862a900ec62a8004aff0700e8fe0700db
:1013ec001201070023fe07009dfe0700fdfd07000c
:1013fc00c02c280059ff070029fd0700e4fc07005a
:10140c00108020004cfd070010bd8800302d2800f6
:10141c0052ff070000882300110020003d01070047
:10142c0010bd80007cff070011bd800012802000e1
:10143c000000eb00b50007000060fe00feff370067
:10144c003200f800881f78000820200098018800de
:10145c004f0478000000fa0087c0a9000080fa0051
:10146c003200f900004006003600f800809fbe00f4
:10147c00829fbe00849fbe00869fbe003200f80093
:10148c0000202000900188000400fa008560a9006b
:10149c003011800000e8b7000180200091407800f6
:1014ac0010c3b30080cf500011003a006000b800a8
:1014bc00008fbe00070037001e0078004e000700aa
:1014cc003dff070010002000010020001e0f40000f
:1014dc005e97480010bd800001002000be0f500038
:1014ec00ae8f5800f4ff3e00802d28001bff070034
:1014fc00018020009140780020c3b30080cf5000c1
:10150c0001003a007cfc070001802000914078002b
:10151c0030c3b30080cf500011003a006000b80017
:10152c00008fbe00090037001e00be001280200094
:10153c0002004000104078001fff07001000200040
:10154c00010020001e0f40005e97480010bd800077
:10155c0001002000be0f5000ae8f5800f2ff3e007d
:10156c000080fa003200f9004f03be004f02be00ab
:10157c004f01be004f00be003600f90000400600cf
:10158c000600fa001007980041479800dd62a90098
:10159c0050c0b300b3000700c0000700004f780034
:1015ac00dd62a8001e80fb00610060000004e0000a
:1015bc00f6ff3a00dd62a90060c0b300a900070085
:1015cc00dd62a800dd62a90020c0b300a500070001
:1015dc001e0090004800de00a20007001e009000d4
:1015ec00a00007004e4090009e000700dd62a8009e
:1015fc000080fa00000006000400fa0010079800b2
:10160c00dd62a90050c0b30096000700a3000700dc
:10161c00004f7800dd62a8001e80fb0061006000b6
:10162c000004e000f6ff3a00dd62a90030c0b30010
:10163c008c0007001e0090004800de0089000700a7
:10164c001e009000870007009400070010479800c8
:10165c00dd62a8001e4090000080fb000080fa00b4
:10166c00000006000a00fa00881f78002007980086
:10167c003107980042079800dd62a90050c0b30002
:10168c007800070085000700004f7800dd62a80095
:10169c001e80fb00610060000004e000f6ff3a00d1
:1016ac00dd62a90030c0b3006e0007002e00900070
:1016bc004800de006b0007002e0090006900070058
:1016cc000000eb0010079800080037009e00900007
:1016dc003e0090000084400070000700004c780031
:1016ec001e0090000000e800100798009e0090007b
:1016fc004e009000808f5000f4ff3900dd62a8008e
:10170c004f0478000080fa00000006000800fa0080
:10171c001007980021079800320798001e009000cf
:10172c00000f7800080037000060fe009e00780073
:10173c003e00900000804000904078001e00780031
:10174c008fff07001e0fe8002e0090009e0f100068
:10175c00f5ff3900202f280080fe07000080fa00da
:04176c000000060073
:020000040000fa
:1017700000080000a40f000080000000a417000073
:10178000760000008200000056002600000076006f
:1017900000260000560036000100760000360000ea
:1017a0000056000034010000760034000004000000
:1017b00000560000320c00000a000000000000008b
:1017c00000000000ffff76000032000000760000fd
:1017d0005400000056003600010376000036000079
:1017e00000560000310504000100190022007600b7
:1017f00000310000005600003e03000001007600aa
:10180000003e0000005600003105010001120400f6
:1018100080760000310000005600240003017600ad
:1018200000240000000000001a180000040000005e
:08183000800000000000000030
:020000040000fa
:101838000000fa00e01320001012880000002800c1
:1018480000128800e0132000101388000000280010
:1018580000138800dd62a800d962a9008820a800ca
:101868000080fa00000006000400fa0020479800f3
:101878008820a90040138000004f78002e40900077
:101888000080fb004013880088c0bf0062406000f1
:101898000004e000fcff32000080fa0000000600af
:1018a8000000fa000040eb00efff07004013800043
:1018b8000080fb000080fa00000006000400fa0027
:1018c8002047980040c0b30010479800a0cfb3004d
:1018d800004f78001e4fe9001e04e000fdff3a00ab
:1018e8001e4090000040e900104798001e409000fc
:1018f8000004e000f5ff3a002e4090000040e900a7
:10190800204798002e4090000004e000edff3a00c8
:081918000080fa000000060047
:020000040000fa
:10192000f03fb1000180b10006003500ee03090070
:1019300000000000403fb1000180b100fbff3d000e
:101940001000b000203fb000020035000080090008
:08195000000000000000060089
:00000001FF
